{
  "_format": "hh-sol-artifact-1",
  "contractName": "Auction",
  "sourceName": "contracts/Auction.sol",
  "abi": [
    {
      "inputs": [
        {
          "internalType": "contract IERC721",
          "name": "_NFT",
          "type": "address"
        },
        {
          "internalType": "uint256",
          "name": "_nftId",
          "type": "uint256"
        },
        {
          "internalType": "uint256",
          "name": "_minimumBid",
          "type": "uint256"
        }
      ],
      "stateMutability": "nonpayable",
      "type": "constructor"
    },
    {
      "anonymous": false,
      "inputs": [
        {
          "indexed": true,
          "internalType": "address",
          "name": "bidder",
          "type": "address"
        },
        {
          "indexed": false,
          "internalType": "uint256",
          "name": "amount",
          "type": "uint256"
        }
      ],
      "name": "Bid",
      "type": "event"
    },
    {
      "inputs": [],
      "name": "NFT",
      "outputs": [
        {
          "internalType": "contract IERC721",
          "name": "",
          "type": "address"
        }
      ],
      "stateMutability": "view",
      "type": "function"
    },
    {
      "inputs": [],
      "name": "auctionEndAt",
      "outputs": [
        {
          "internalType": "uint256",
          "name": "",
          "type": "uint256"
        }
      ],
      "stateMutability": "view",
      "type": "function"
    },
    {
      "inputs": [],
      "name": "auctionEnded",
      "outputs": [
        {
          "internalType": "bool",
          "name": "",
          "type": "bool"
        }
      ],
      "stateMutability": "view",
      "type": "function"
    },
    {
      "inputs": [],
      "name": "beneficiary",
      "outputs": [
        {
          "internalType": "address payable",
          "name": "",
          "type": "address"
        }
      ],
      "stateMutability": "view",
      "type": "function"
    },
    {
      "inputs": [],
      "name": "bid",
      "outputs": [],
      "stateMutability": "payable",
      "type": "function"
    },
    {
      "inputs": [],
      "name": "bidPlaced",
      "outputs": [
        {
          "internalType": "bool",
          "name": "",
          "type": "bool"
        }
      ],
      "stateMutability": "view",
      "type": "function"
    },
    {
      "inputs": [],
      "name": "maxBidder",
      "outputs": [
        {
          "internalType": "address",
          "name": "",
          "type": "address"
        }
      ],
      "stateMutability": "view",
      "type": "function"
    },
    {
      "inputs": [],
      "name": "minimumBid",
      "outputs": [
        {
          "internalType": "uint256",
          "name": "",
          "type": "uint256"
        }
      ],
      "stateMutability": "view",
      "type": "function"
    },
    {
      "inputs": [],
      "name": "nftId",
      "outputs": [
        {
          "internalType": "uint256",
          "name": "",
          "type": "uint256"
        }
      ],
      "stateMutability": "view",
      "type": "function"
    },
    {
      "inputs": [],
      "name": "numBids",
      "outputs": [
        {
          "internalType": "uint256",
          "name": "",
          "type": "uint256"
        }
      ],
      "stateMutability": "view",
      "type": "function"
    },
    {
      "inputs": [],
      "name": "settleAuction",
      "outputs": [],
      "stateMutability": "nonpayable",
      "type": "function"
    }
  ],
  "bytecode": "0x60806040523480156200001157600080fd5b50604051620016ce380380620016ce83398181016040528101906200003791906200028b565b8060038190555033600260006101000a81548173ffffffffffffffffffffffffffffffffffffffff021916908373ffffffffffffffffffffffffffffffffffffffff1602179055506000600460146101000a81548160ff0219169083151502179055506000600460156101000a81548160ff021916908315150217905550826000806101000a81548173ffffffffffffffffffffffffffffffffffffffff021916908373ffffffffffffffffffffffffffffffffffffffff1602179055508160018190555060008054906101000a900473ffffffffffffffffffffffffffffffffffffffff1673ffffffffffffffffffffffffffffffffffffffff166323b872dd600260009054906101000a900473ffffffffffffffffffffffffffffffffffffffff16306001546040518463ffffffff1660e01b81526004016200017f9392919062000374565b600060405180830381600087803b1580156200019a57600080fd5b505af1158015620001af573d6000803e3d6000fd5b50505050611c2042620001c39190620003e0565b6006819055505050506200041b565b600080fd5b600073ffffffffffffffffffffffffffffffffffffffff82169050919050565b60006200020482620001d7565b9050919050565b60006200021882620001f7565b9050919050565b6200022a816200020b565b81146200023657600080fd5b50565b6000815190506200024a816200021f565b92915050565b6000819050919050565b620002658162000250565b81146200027157600080fd5b50565b60008151905062000285816200025a565b92915050565b600080600060608486031215620002a757620002a6620001d2565b5b6000620002b78682870162000239565b9350506020620002ca8682870162000274565b9250506040620002dd8682870162000274565b9150509250925092565b6000819050919050565b6000620003126200030c6200030684620001d7565b620002e7565b620001d7565b9050919050565b60006200032682620002f1565b9050919050565b60006200033a8262000319565b9050919050565b6200034c816200032d565b82525050565b6200035d81620001f7565b82525050565b6200036e8162000250565b82525050565b60006060820190506200038b600083018662000341565b6200039a602083018562000352565b620003a9604083018462000363565b949350505050565b7f4e487b7100000000000000000000000000000000000000000000000000000000600052601160045260246000fd5b6000620003ed8262000250565b9150620003fa8362000250565b9250828201905080821115620004155762000414620003b1565b5b92915050565b6112a3806200042b6000396000f3fe60806040526004361061009c5760003560e01c8063a4d0a17e11610064578063a4d0a17e14610157578063b5bc95911461016e578063c6bc518214610199578063ce9ec0a6146101c4578063d1a261c9146101ef578063d3a863861461021a5761009c565b80630726a1a5146100a15780631998aeef146100cc57806338af3eed146100d65780637c0b8de214610101578063864333741461012c575b600080fd5b3480156100ad57600080fd5b506100b6610245565b6040516100c39190610c0b565b60405180910390f35b6100d461024b565b005b3480156100e257600080fd5b506100eb610521565b6040516100f89190610c67565b60405180910390f35b34801561010d57600080fd5b50610116610547565b6040516101239190610ce1565b60405180910390f35b34801561013857600080fd5b5061014161056b565b60405161014e9190610d17565b60405180910390f35b34801561016357600080fd5b5061016c61057e565b005b34801561017a57600080fd5b50610183610986565b6040516101909190610d53565b60405180910390f35b3480156101a557600080fd5b506101ae6109ac565b6040516101bb9190610c0b565b60405180910390f35b3480156101d057600080fd5b506101d96109b2565b6040516101e69190610c0b565b60405180910390f35b3480156101fb57600080fd5b506102046109b8565b6040516102119190610d17565b60405180910390f35b34801561022657600080fd5b5061022f6109cb565b60405161023c9190610c0b565b60405180910390f35b60065481565b60001515600460149054906101000a900460ff161515146102a1576040517f08c379a000000000000000000000000000000000000000000000000000000000815260040161029890610dcb565b60405180910390fd5b600460009054906101000a900473ffffffffffffffffffffffffffffffffffffffff1673ffffffffffffffffffffffffffffffffffffffff163373ffffffffffffffffffffffffffffffffffffffff1603610331576040517f08c379a000000000000000000000000000000000000000000000000000000000815260040161032890610e37565b60405180910390fd5b6003543411610375576040517f08c379a000000000000000000000000000000000000000000000000000000000815260040161036c90610ea3565b60405180910390fd5b6000339050600034905060011515600460159054906101000a900460ff1615150361046c576000600460009054906101000a900473ffffffffffffffffffffffffffffffffffffffff1673ffffffffffffffffffffffffffffffffffffffff166003546040516103e490610ef4565b60006040518083038185875af1925050503d8060008114610421576040519150601f19603f3d011682016040523d82523d6000602084013e610426565b606091505b505090508061046a576040517f08c379a000000000000000000000000000000000000000000000000000000000815260040161046190610f55565b60405180910390fd5b505b6001600460156101000a81548160ff0219169083151502179055508060038190555081600460006101000a81548173ffffffffffffffffffffffffffffffffffffffff021916908373ffffffffffffffffffffffffffffffffffffffff1602179055503373ffffffffffffffffffffffffffffffffffffffff167fe684a55f31b79eca403df938249029212a5925ec6be8012e099b45bc1019e5d2346040516105159190610c0b565b60405180910390a25050565b600260009054906101000a900473ffffffffffffffffffffffffffffffffffffffff1681565b60008054906101000a900473ffffffffffffffffffffffffffffffffffffffff1681565b600460149054906101000a900460ff1681565b600260009054906101000a900473ffffffffffffffffffffffffffffffffffffffff1673ffffffffffffffffffffffffffffffffffffffff163373ffffffffffffffffffffffffffffffffffffffff16146105d857600080fd5b600460149054906101000a900460ff1615610628576040517f08c379a000000000000000000000000000000000000000000000000000000000815260040161061f90610fc1565b60405180910390fd5b6006544210156106b2576000426006546106429190611010565b9050600061064f826109d1565b9050600081604051602001610664919061114d565b6040516020818303038152906040529050806040517f08c379a00000000000000000000000000000000000000000000000000000000081526004016106a991906111c4565b60405180910390fd5b6001600460146101000a81548160ff02191690831515021790555060001515600460159054906101000a900460ff1615150361080157600260009054906101000a900473ffffffffffffffffffffffffffffffffffffffff16600460006101000a81548173ffffffffffffffffffffffffffffffffffffffff021916908373ffffffffffffffffffffffffffffffffffffffff16021790555060008054906101000a900473ffffffffffffffffffffffffffffffffffffffff1673ffffffffffffffffffffffffffffffffffffffff1663a9059cbb600460009054906101000a900473ffffffffffffffffffffffffffffffffffffffff166001546040518363ffffffff1660e01b81526004016107ca9291906111e6565b600060405180830381600087803b1580156107e457600080fd5b505af11580156107f8573d6000803e3d6000fd5b50505050610984565b6000600260009054906101000a900473ffffffffffffffffffffffffffffffffffffffff1673ffffffffffffffffffffffffffffffffffffffff1660035460405161084b90610ef4565b60006040518083038185875af1925050503d8060008114610888576040519150601f19603f3d011682016040523d82523d6000602084013e61088d565b606091505b50509050806108d1576040517f08c379a00000000000000000000000000000000000000000000000000000000081526004016108c890610f55565b60405180910390fd5b60008054906101000a900473ffffffffffffffffffffffffffffffffffffffff1673ffffffffffffffffffffffffffffffffffffffff1663a9059cbb600460009054906101000a900473ffffffffffffffffffffffffffffffffffffffff166001546040518363ffffffff1660e01b81526004016109509291906111e6565b600060405180830381600087803b15801561096a57600080fd5b505af115801561097e573d6000803e3d6000fd5b50505050505b565b600460009054906101000a900473ffffffffffffffffffffffffffffffffffffffff1681565b60015481565b60055481565b600460159054906101000a900460ff1681565b60035481565b6060600060016109e084610a9f565b01905060008167ffffffffffffffff8111156109ff576109fe61120f565b5b6040519080825280601f01601f191660200182016040528015610a315781602001600182028036833780820191505090505b509050600082602001820190505b600115610a94578080600190039150507f3031323334353637383961626364656600000000000000000000000000000000600a86061a8153600a8581610a8857610a8761123e565b5b04945060008503610a3f575b819350505050919050565b600080600090507a184f03e93ff9f4daa797ed6e38ed64bf6a1f0100000000000000008310610afd577a184f03e93ff9f4daa797ed6e38ed64bf6a1f0100000000000000008381610af357610af261123e565b5b0492506040810190505b6d04ee2d6d415b85acef81000000008310610b3a576d04ee2d6d415b85acef81000000008381610b3057610b2f61123e565b5b0492506020810190505b662386f26fc100008310610b6957662386f26fc100008381610b5f57610b5e61123e565b5b0492506010810190505b6305f5e1008310610b92576305f5e1008381610b8857610b8761123e565b5b0492506008810190505b6127108310610bb7576127108381610bad57610bac61123e565b5b0492506004810190505b60648310610bda5760648381610bd057610bcf61123e565b5b0492506002810190505b600a8310610be9576001810190505b80915050919050565b6000819050919050565b610c0581610bf2565b82525050565b6000602082019050610c206000830184610bfc565b92915050565b600073ffffffffffffffffffffffffffffffffffffffff82169050919050565b6000610c5182610c26565b9050919050565b610c6181610c46565b82525050565b6000602082019050610c7c6000830184610c58565b92915050565b6000819050919050565b6000610ca7610ca2610c9d84610c26565b610c82565b610c26565b9050919050565b6000610cb982610c8c565b9050919050565b6000610ccb82610cae565b9050919050565b610cdb81610cc0565b82525050565b6000602082019050610cf66000830184610cd2565b92915050565b60008115159050919050565b610d1181610cfc565b82525050565b6000602082019050610d2c6000830184610d08565b92915050565b6000610d3d82610c26565b9050919050565b610d4d81610d32565b82525050565b6000602082019050610d686000830184610d44565b92915050565b600082825260208201905092915050565b7f41756374696f6e20456e64656421000000000000000000000000000000000000600082015250565b6000610db5600e83610d6e565b9150610dc082610d7f565b602082019050919050565b60006020820190508181036000830152610de481610da8565b9050919050565b7f496e63726561736520796f757220426964210000000000000000000000000000600082015250565b6000610e21601283610d6e565b9150610e2c82610deb565b602082019050919050565b60006020820190508181036000830152610e5081610e14565b9050919050565b7f426964206c657373207468616e206d696e696d756d206269642e000000000000600082015250565b6000610e8d601a83610d6e565b9150610e9882610e57565b602082019050919050565b60006020820190508181036000830152610ebc81610e80565b9050919050565b600081905092915050565b50565b6000610ede600083610ec3565b9150610ee982610ece565b600082019050919050565b6000610eff82610ed1565b9150819050919050565b7f4661696c656420746f2073656e64204574686572000000000000000000000000600082015250565b6000610f3f601483610d6e565b9150610f4a82610f09565b602082019050919050565b60006020820190508181036000830152610f6e81610f32565b9050919050565b7f41756374696f6e2068617320616c726561647920656e64656421000000000000600082015250565b6000610fab601a83610d6e565b9150610fb682610f75565b602082019050919050565b60006020820190508181036000830152610fda81610f9e565b9050919050565b7f4e487b7100000000000000000000000000000000000000000000000000000000600052601160045260246000fd5b600061101b82610bf2565b915061102683610bf2565b925082820390508181111561103e5761103d610fe1565b5b92915050565b600081905092915050565b7f546f6f20736f6f6e212054696d65206c6566743a200000000000000000000000600082015250565b6000611085601583611044565b91506110908261104f565b601582019050919050565b600081519050919050565b60005b838110156110c45780820151818401526020810190506110a9565b60008484015250505050565b60006110db8261109b565b6110e58185611044565b93506110f58185602086016110a6565b80840191505092915050565b7f207365636f6e64732e0000000000000000000000000000000000000000000000600082015250565b6000611137600983611044565b915061114282611101565b600982019050919050565b600061115882611078565b915061116482846110d0565b915061116f8261112a565b915081905092915050565b6000601f19601f8301169050919050565b60006111968261109b565b6111a08185610d6e565b93506111b08185602086016110a6565b6111b98161117a565b840191505092915050565b600060208201905081810360008301526111de818461118b565b905092915050565b60006040820190506111fb6000830185610d44565b6112086020830184610bfc565b9392505050565b7f4e487b7100000000000000000000000000000000000000000000000000000000600052604160045260246000fd5b7f4e487b7100000000000000000000000000000000000000000000000000000000600052601260045260246000fdfea2646970667358221220b637148938b0ce9e15cf6c0358af4392fd283a984576c030c2d294490442daa464736f6c63430008140033",
  "linkReferences": {},
  "deployedLinkReferences": {}
}